{
  "contractName": "GpcExchange",
  "abi": [
    {
      "anonymous": false,
      "inputs": [
        {
          "indexed": false,
          "internalType": "uint256",
          "name": "bnb",
          "type": "uint256"
        },
        {
          "indexed": false,
          "internalType": "uint256",
          "name": "amount",
          "type": "uint256"
        },
        {
          "indexed": false,
          "internalType": "uint256",
          "name": "leftbnb",
          "type": "uint256"
        },
        {
          "indexed": false,
          "internalType": "uint256",
          "name": "leftgpc",
          "type": "uint256"
        }
      ],
      "name": "Buy",
      "type": "event"
    },
    {
      "anonymous": false,
      "inputs": [
        {
          "indexed": true,
          "internalType": "address",
          "name": "from",
          "type": "address"
        },
        {
          "indexed": false,
          "internalType": "address",
          "name": "user",
          "type": "address"
        },
        {
          "indexed": false,
          "internalType": "uint256",
          "name": "amount",
          "type": "uint256"
        }
      ],
      "name": "Deposit",
      "type": "event"
    },
    {
      "anonymous": false,
      "inputs": [
        {
          "indexed": false,
          "internalType": "uint8",
          "name": "version",
          "type": "uint8"
        }
      ],
      "name": "Initialized",
      "type": "event"
    },
    {
      "anonymous": false,
      "inputs": [
        {
          "indexed": true,
          "internalType": "address",
          "name": "from",
          "type": "address"
        },
        {
          "indexed": false,
          "internalType": "address",
          "name": "user",
          "type": "address"
        },
        {
          "indexed": false,
          "internalType": "uint256",
          "name": "amount",
          "type": "uint256"
        }
      ],
      "name": "PaymentReceived",
      "type": "event"
    },
    {
      "anonymous": false,
      "inputs": [
        {
          "indexed": true,
          "internalType": "bytes32",
          "name": "requestHash",
          "type": "bytes32"
        }
      ],
      "name": "RequestExecuted",
      "type": "event"
    },
    {
      "anonymous": false,
      "inputs": [
        {
          "indexed": true,
          "internalType": "bytes32",
          "name": "requestHash",
          "type": "bytes32"
        },
        {
          "indexed": false,
          "internalType": "uint256",
          "name": "executeAfter",
          "type": "uint256"
        }
      ],
      "name": "RequestSubmitted",
      "type": "event"
    },
    {
      "anonymous": false,
      "inputs": [
        {
          "indexed": false,
          "internalType": "uint256",
          "name": "bnb",
          "type": "uint256"
        },
        {
          "indexed": false,
          "internalType": "uint256",
          "name": "amount",
          "type": "uint256"
        },
        {
          "indexed": false,
          "internalType": "uint256",
          "name": "leftbnb",
          "type": "uint256"
        },
        {
          "indexed": false,
          "internalType": "uint256",
          "name": "leftgpc",
          "type": "uint256"
        }
      ],
      "name": "Sell",
      "type": "event"
    },
    {
      "anonymous": false,
      "inputs": [
        {
          "indexed": false,
          "internalType": "uint256",
          "name": "price",
          "type": "uint256"
        },
        {
          "indexed": false,
          "internalType": "uint256",
          "name": "result",
          "type": "uint256"
        },
        {
          "indexed": false,
          "internalType": "uint256",
          "name": "usdt",
          "type": "uint256"
        }
      ],
      "name": "TradeTriger",
      "type": "event"
    },
    {
      "anonymous": false,
      "inputs": [
        {
          "indexed": true,
          "internalType": "address",
          "name": "from",
          "type": "address"
        },
        {
          "indexed": false,
          "internalType": "address",
          "name": "user",
          "type": "address"
        },
        {
          "indexed": false,
          "internalType": "uint256",
          "name": "amount",
          "type": "uint256"
        },
        {
          "indexed": false,
          "internalType": "uint256",
          "name": "fee",
          "type": "uint256"
        }
      ],
      "name": "WithdrawBnb",
      "type": "event"
    },
    {
      "anonymous": false,
      "inputs": [
        {
          "indexed": true,
          "internalType": "address",
          "name": "from",
          "type": "address"
        },
        {
          "indexed": false,
          "internalType": "address",
          "name": "user",
          "type": "address"
        },
        {
          "indexed": false,
          "internalType": "uint256",
          "name": "amount",
          "type": "uint256"
        },
        {
          "indexed": false,
          "internalType": "uint256",
          "name": "fee",
          "type": "uint256"
        }
      ],
      "name": "WithdrawGpc",
      "type": "event"
    },
    {
      "stateMutability": "payable",
      "type": "fallback",
      "payable": true
    },
    {
      "inputs": [],
      "name": "defaultGrid",
      "outputs": [
        {
          "internalType": "uint256",
          "name": "",
          "type": "uint256"
        }
      ],
      "stateMutability": "view",
      "type": "function",
      "constant": true
    },
    {
      "inputs": [],
      "name": "defaultSlip",
      "outputs": [
        {
          "internalType": "uint256",
          "name": "",
          "type": "uint256"
        }
      ],
      "stateMutability": "view",
      "type": "function",
      "constant": true
    },
    {
      "inputs": [
        {
          "internalType": "bytes32",
          "name": "",
          "type": "bytes32"
        }
      ],
      "name": "pendingRequests",
      "outputs": [
        {
          "internalType": "address",
          "name": "toAddress",
          "type": "address"
        },
        {
          "internalType": "uint256",
          "name": "amountMin",
          "type": "uint256"
        },
        {
          "internalType": "uint256",
          "name": "price",
          "type": "uint256"
        },
        {
          "internalType": "uint256",
          "name": "tradeType",
          "type": "uint256"
        },
        {
          "internalType": "uint256",
          "name": "amountIn",
          "type": "uint256"
        },
        {
          "internalType": "uint256",
          "name": "submitBlock",
          "type": "uint256"
        },
        {
          "internalType": "uint256",
          "name": "executeAfter",
          "type": "uint256"
        },
        {
          "internalType": "bool",
          "name": "executed",
          "type": "bool"
        }
      ],
      "stateMutability": "view",
      "type": "function",
      "constant": true
    },
    {
      "inputs": [],
      "name": "tradeFee",
      "outputs": [
        {
          "internalType": "uint256",
          "name": "",
          "type": "uint256"
        }
      ],
      "stateMutability": "view",
      "type": "function",
      "constant": true
    },
    {
      "stateMutability": "payable",
      "type": "receive",
      "payable": true
    },
    {
      "inputs": [],
      "name": "initialize",
      "outputs": [],
      "stateMutability": "nonpayable",
      "type": "function"
    },
    {
      "inputs": [
        {
          "internalType": "address",
          "name": "addr",
          "type": "address"
        }
      ],
      "name": "checkWhiteList",
      "outputs": [
        {
          "internalType": "bool",
          "name": "",
          "type": "bool"
        }
      ],
      "stateMutability": "view",
      "type": "function",
      "constant": true
    },
    {
      "inputs": [
        {
          "internalType": "address",
          "name": "addr",
          "type": "address"
        },
        {
          "internalType": "bool",
          "name": "state",
          "type": "bool"
        }
      ],
      "name": "setWhiteList",
      "outputs": [],
      "stateMutability": "nonpayable",
      "type": "function"
    },
    {
      "inputs": [
        {
          "internalType": "uint256",
          "name": "grid",
          "type": "uint256"
        },
        {
          "internalType": "uint256",
          "name": "fee",
          "type": "uint256"
        }
      ],
      "name": "setParams",
      "outputs": [],
      "stateMutability": "nonpayable",
      "type": "function"
    },
    {
      "inputs": [
        {
          "internalType": "address",
          "name": "_execAddress_",
          "type": "address"
        }
      ],
      "name": "setAddress",
      "outputs": [],
      "stateMutability": "nonpayable",
      "type": "function"
    },
    {
      "inputs": [
        {
          "internalType": "address",
          "name": "_profitAddress_",
          "type": "address"
        }
      ],
      "name": "setProfitAddress",
      "outputs": [],
      "stateMutability": "nonpayable",
      "type": "function"
    },
    {
      "inputs": [],
      "name": "getReserves",
      "outputs": [
        {
          "internalType": "uint256",
          "name": "",
          "type": "uint256"
        },
        {
          "internalType": "uint256",
          "name": "",
          "type": "uint256"
        },
        {
          "internalType": "uint256",
          "name": "",
          "type": "uint256"
        },
        {
          "internalType": "uint256",
          "name": "",
          "type": "uint256"
        }
      ],
      "stateMutability": "view",
      "type": "function",
      "constant": true
    },
    {
      "inputs": [],
      "name": "total",
      "outputs": [
        {
          "internalType": "uint256",
          "name": "bnbTotal",
          "type": "uint256"
        },
        {
          "internalType": "uint256",
          "name": "gpcTotal",
          "type": "uint256"
        },
        {
          "internalType": "uint256",
          "name": "bnbReal",
          "type": "uint256"
        },
        {
          "internalType": "uint256",
          "name": "gpcReal",
          "type": "uint256"
        }
      ],
      "stateMutability": "view",
      "type": "function",
      "constant": true
    },
    {
      "inputs": [
        {
          "internalType": "address",
          "name": "erc20Address",
          "type": "address"
        }
      ],
      "name": "withDrawErc20",
      "outputs": [],
      "stateMutability": "nonpayable",
      "type": "function"
    },
    {
      "inputs": [],
      "name": "cheanSystem",
      "outputs": [],
      "stateMutability": "nonpayable",
      "type": "function"
    },
    {
      "inputs": [],
      "name": "requestLength",
      "outputs": [
        {
          "internalType": "uint256",
          "name": "",
          "type": "uint256"
        }
      ],
      "stateMutability": "view",
      "type": "function",
      "constant": true
    },
    {
      "inputs": [],
      "name": "gpcPrice",
      "outputs": [
        {
          "internalType": "uint256",
          "name": "",
          "type": "uint256"
        }
      ],
      "stateMutability": "view",
      "type": "function",
      "constant": true
    },
    {
      "inputs": [],
      "name": "bnbPrice",
      "outputs": [
        {
          "internalType": "uint256",
          "name": "",
          "type": "uint256"
        }
      ],
      "stateMutability": "view",
      "type": "function",
      "constant": true
    },
    {
      "inputs": [],
      "name": "checkExecute",
      "outputs": [
        {
          "internalType": "bool",
          "name": "",
          "type": "bool"
        }
      ],
      "stateMutability": "view",
      "type": "function",
      "constant": true
    },
    {
      "inputs": [],
      "name": "executeAction",
      "outputs": [],
      "stateMutability": "nonpayable",
      "type": "function"
    },
    {
      "inputs": [
        {
          "internalType": "address",
          "name": "user",
          "type": "address"
        }
      ],
      "name": "balanceOf",
      "outputs": [
        {
          "internalType": "uint256",
          "name": "",
          "type": "uint256"
        }
      ],
      "stateMutability": "view",
      "type": "function",
      "constant": true
    },
    {
      "inputs": [
        {
          "internalType": "address",
          "name": "user",
          "type": "address"
        }
      ],
      "name": "balanceOfValue",
      "outputs": [
        {
          "internalType": "uint256",
          "name": "",
          "type": "uint256"
        },
        {
          "internalType": "uint256",
          "name": "",
          "type": "uint256"
        }
      ],
      "stateMutability": "view",
      "type": "function",
      "constant": true
    },
    {
      "inputs": [
        {
          "internalType": "address",
          "name": "user",
          "type": "address"
        }
      ],
      "name": "balanceOfSelf",
      "outputs": [
        {
          "internalType": "uint256",
          "name": "",
          "type": "uint256"
        },
        {
          "internalType": "uint256",
          "name": "",
          "type": "uint256"
        }
      ],
      "stateMutability": "view",
      "type": "function",
      "constant": true
    },
    {
      "inputs": [
        {
          "internalType": "address",
          "name": "user",
          "type": "address"
        }
      ],
      "name": "userBalanceOf",
      "outputs": [
        {
          "internalType": "uint256",
          "name": "",
          "type": "uint256"
        }
      ],
      "stateMutability": "view",
      "type": "function",
      "constant": true
    },
    {
      "inputs": [],
      "name": "totalBalanceValue",
      "outputs": [
        {
          "internalType": "uint256",
          "name": "",
          "type": "uint256"
        },
        {
          "internalType": "uint256",
          "name": "",
          "type": "uint256"
        }
      ],
      "stateMutability": "view",
      "type": "function",
      "constant": true
    },
    {
      "inputs": [],
      "name": "totalBalance",
      "outputs": [
        {
          "internalType": "uint256",
          "name": "",
          "type": "uint256"
        }
      ],
      "stateMutability": "view",
      "type": "function",
      "constant": true
    },
    {
      "inputs": [],
      "name": "checkPriceTriger",
      "outputs": [
        {
          "internalType": "bool",
          "name": "",
          "type": "bool"
        }
      ],
      "stateMutability": "view",
      "type": "function",
      "constant": true
    },
    {
      "inputs": [],
      "name": "dealReceive",
      "outputs": [],
      "stateMutability": "payable",
      "type": "function",
      "payable": true
    },
    {
      "inputs": [
        {
          "internalType": "uint256",
          "name": "_gpc_",
          "type": "uint256"
        }
      ],
      "name": "depositGpc",
      "outputs": [],
      "stateMutability": "nonpayable",
      "type": "function"
    },
    {
      "inputs": [],
      "name": "withdraw",
      "outputs": [],
      "stateMutability": "nonpayable",
      "type": "function"
    },
    {
      "inputs": [],
      "name": "processTrade",
      "outputs": [],
      "stateMutability": "nonpayable",
      "type": "function"
    },
    {
      "inputs": [
        {
          "internalType": "address",
          "name": "_address_",
          "type": "address"
        },
        {
          "internalType": "uint256",
          "name": "amount",
          "type": "uint256"
        }
      ],
      "name": "withDrawGpc",
      "outputs": [],
      "stateMutability": "nonpayable",
      "type": "function"
    }
  ],
  "bytecode": "0x608060405234801561000f575f80fd5b50613e4f8061001d5f395ff3fe6080604052600436106101db575f3560e01c80638129fc1c11610101578063ad7a672f11610094578063d8b48ff011610063578063d8b48ff01461058b578063e30081a0146105aa578063e90d6d6d146105c9578063f0ca6197146105dd576101ea565b8063ad7a672f14610530578063b4df23b714610544578063c0324c7714610558578063c64f4da114610577576101ea565b80638ec90e5e116100d05780638ec90e5e146104c65780639cce37c6146104da578063a5018061146101ea578063ac4a1c3a14610511576101ea565b80638129fc1c1461046057806382cf114c1461047457806385c17896146104935780638d14e127146104a7576101ea565b806345f12c691161017957806360210dbd1161014857806360210dbd146103df5780636b0b78131461040357806370a0823114610418578063805f0f001461044c576101ea565b806345f12c6914610364578063576dde12146103785780635b1fc21d1461038c5780636012cc7c146103ab576101ea565b806325af55a2116101b557806325af55a21461026d5780632795ad201461028c5780632ddbd13a1461033c5780633ccfd60b14610350576101ea565b80630902f1ac146101f25780630cb222891461022b57806324bcdfbd14610258576101ea565b366101ea576101e86105f2565b005b6101e86105f2565b3480156101fd575f80fd5b506102066106cd565b6040805194855260208501939093529183015260608201526080015b60405180910390f35b348015610236575f80fd5b5061024a6102453660046139a4565b6107f3565b604051908152602001610222565b348015610263575f80fd5b5061024a603b5481565b348015610278575f80fd5b506101e86102873660046139a4565b61085b565b348015610297575f80fd5b506102f56102a63660046139c6565b603e6020525f9081526040902080546001820154600283015460038401546004850154600586015460068701546007909701546001600160a01b03909616969495939492939192909160ff1688565b604080516001600160a01b0390991689526020890197909752958701949094526060860192909252608085015260a084015260c0830152151560e082015261010001610222565b348015610347575f80fd5b50610206610954565b34801561035b575f80fd5b506101e86109d0565b34801561036f575f80fd5b50603f5461024a565b348015610383575f80fd5b5061024a6109d9565b348015610397575f80fd5b506101e86103a63660046139dd565b610a30565b3480156103b6575f80fd5b506103ca6103c53660046139a4565b610b12565b60408051928352602083019190915201610222565b3480156103ea575f80fd5b506103f3610b83565b6040519015158152602001610222565b34801561040e575f80fd5b5061024a60395481565b348015610423575f80fd5b5061024a6104323660046139a4565b6001600160a01b03165f9081526040602081905290205490565b348015610457575f80fd5b506101e8610ca1565b34801561046b575f80fd5b506101e8610d75565b34801561047f575f80fd5b506101e861048e3660046139a4565b611248565b34801561049e575f80fd5b506103ca6112bb565b3480156104b2575f80fd5b506101e86104c1366004613a14565b611305565b3480156104d1575f80fd5b506101e8611375565b3480156104e5575f80fd5b506103f36104f43660046139a4565b6001600160a01b03165f9081526042602052604090205460ff1690565b34801561051c575f80fd5b506103ca61052b3660046139a4565b6113d3565b34801561053b575f80fd5b5061024a61145c565b34801561054f575f80fd5b506101e86114c8565b348015610563575f80fd5b506101e8610572366004613a4b565b6116a1565b348015610582575f80fd5b5061024a6117a8565b348015610596575f80fd5b506101e86105a53660046139c6565b611822565b3480156105b5575f80fd5b506101e86105c43660046139a4565b6119d8565b3480156105d4575f80fd5b506103f3611a4b565b3480156105e8575f80fd5b5061024a603a5481565b6044546001600160a01b03163314801561060a575034155b1561064257603f54156106385760405162461bcd60e51b815260040161062f90613a6b565b60405180910390fd5b6106406114c8565b565b333b15610686576040805133808252346020830152917f45fdc265dc29885b9a485766b03e70978440d38c7c328ee0a14fa40c76c6af5491015b60405180910390a2565b6106903334611ac1565b3415610640576040805133808252346020830152917f45fdc265dc29885b9a485766b03e70978440d38c7c328ee0a14fa40c76c6af54910161067c565b5f805f805f8060375f9054906101000a90046001600160a01b03166001600160a01b0316630902f1ac6040518163ffffffff1660e01b8152600401606060405180830381865afa158015610723573d5f803e3d5ffd5b505050506040513d601f19601f820116820180604052508101906107479190613ab3565b506001600160701b031691506001600160701b031691505f8060385f9054906101000a90046001600160a01b03166001600160a01b0316630902f1ac6040518163ffffffff1660e01b8152600401606060405180830381865afa1580156107b0573d5f803e3d5ffd5b505050506040513d601f19601f820116820180604052508101906107d49190613ab3565b5094985092965050506001600160701b03908116935016905090919293565b6001600160a01b0381165f90815260406020819052812054805f0361081a57505f92915050565b5f806108246112bb565b915091505f61083161145c565b90506108518161084b6108448686611b75565b8790611b89565b90611b94565b9695505050505050565b610863611b9f565b73d3c304697f63b279cd314f92c19cdbe5e5b16319196001600160a01b038216016108c15760405162461bcd60e51b815260206004820152600e60248201526d63616e206e6f742062792067706360901b604482015260640161062f565b6040516370a0823160e01b815230600482015281905f906001600160a01b038316906370a0823190602401602060405180830381865afa158015610907573d5f803e3d5ffd5b505050506040513d601f19601f8201168201806040525081019061092b9190613aff565b6044549091506109469083906001600160a01b031683611bf8565b505061095160018055565b50565b6048546047546046546040516370a0823160e01b815230600482015247915f916001600160a01b03909116906370a0823190602401602060405180830381865afa1580156109a4573d5f803e3d5ffd5b505050506040513d601f19601f820116820180604052508101906109c89190613aff565b905090919293565b61064033611c66565b5f805f6109e46106cd565b9350935050505f8111610a095760405162461bcd60e51b815260040161062f90613b16565b5f610a1c83670de0b6b3a7640000611b89565b9050610a288183611b94565b935050505090565b610a38611b9f565b6044546001600160a01b0316331480610a5b57506045546001600160a01b031633145b610a775760405162461bcd60e51b815260040161062f90613b40565b5f80610a81610954565b9350509250505f610a95603c54603d549091565b50905083610aa38285613b77565b610aad9190613b77565b821015610aeb5760405162461bcd60e51b815260206004820152600c60248201526b4e6f204572726f722047504360a01b604482015260640161062f565b604654610b02906001600160a01b03168686611bf8565b505050610b0e60018055565b5050565b5f805f610b33846001600160a01b03165f9081526040602081905290205490565b9050805f03610b4757505f93849350915050565b610b60610b5261145c565b60475461084b908490611b89565b610b79610b6b61145c565b60485461084b908590611b89565b9250925050915091565b5f8080610b8f603f5490565b1115610b9a57919050565b5f80610ba46112bb565b9150915080821115610c46575f610bbb8284613b8a565b905081158015610bdd5750678ac7230489e80000610bda600283613bb1565b10155b15610bed57600194505050505090565b5f82610bfa836064613bc4565b610c049190613bb1565b90506039548110158015610c2a5750678ac7230489e80000610c27600284613bb1565b10155b15610c3b5760019550505050505090565b5f9550505050505090565b80821015610c98575f610c598383613b8a565b905082158015610c7b5750678ac7230489e80000610c78600283613bb1565b10155b15610c8b57600194505050505090565b5f83610bfa836064613bc4565b5f935050505090565b610ca9611b9f565b60455466b1a2bc2ec500006001600160a01b03909116311015610cce57610cce611d79565b5f5b603f54811015610d6b575f603e5f603f8481548110610cf157610cf1613bdb565b5f91825260208083209091015483528201929092526040019020600781015490915060ff16610d585780600601544310610d5857610d49603f8381548110610d3b57610d3b613bdb565b905f5260205f200154611ece565b610d52826125c5565b50610d6b565b5080610d6381613bef565b915050610cd0565b5061064060018055565b5f54610100900460ff1615808015610d9357505f54600160ff909116105b80610dac5750303b158015610dac57505f5460ff166001145b610e0f5760405162461bcd60e51b815260206004820152602e60248201527f496e697469616c697a61626c653a20636f6e747261637420697320616c72656160448201526d191e481a5b9a5d1a585b1a5e995960921b606482015260840161062f565b5f805460ff191660011790558015610e30575f805461ff0019166101001790555b6046805473d3c304697f63b279cd314f92c19cdbe5e5b1631a6001600160a01b031991821617909155603680547310ed43c718714eb63d5aa57b78b54704e256024e9216821790556040805163c45a015560e01b815290515f929163c45a01559160048083019260209291908290030181865afa158015610eb3573d5f803e3d5ffd5b505050506040513d601f19601f82011682018060405250810190610ed79190613c07565b9050806001600160a01b031663e6a4390573d3c304697f63b279cd314f92c19cdbe5e5b1631a60365f9054906101000a90046001600160a01b03166001600160a01b031663ad5c46486040518163ffffffff1660e01b8152600401602060405180830381865afa158015610f4d573d5f803e3d5ffd5b505050506040513d601f19601f82011682018060405250810190610f719190613c07565b6040516001600160e01b031960e085901b1681526001600160a01b03928316600482015291166024820152604401602060405180830381865afa158015610fba573d5f803e3d5ffd5b505050506040513d601f19601f82011682018060405250810190610fde9190613c07565b603780546001600160a01b0319166001600160a01b03928316179055603654604080516315ab88c960e31b815290518484169363e6a43905937355d398326f99059ff775485246999027b31979559391169163ad5c4648916004808201926020929091908290030181865afa158015611059573d5f803e3d5ffd5b505050506040513d601f19601f8201168201806040525081019061107d9190613c07565b6040516001600160e01b031960e085901b1681526001600160a01b03928316600482015291166024820152604401602060405180830381865afa1580156110c6573d5f803e3d5ffd5b505050506040513d601f19601f820116820180604052508101906110ea9190613c07565b603880546001600160a01b0319166001600160a01b0392831617905560375460408051630240bc6b60e21b815290515f9384931691630902f1ac9160048083019260609291908290030181865afa158015611147573d5f803e3d5ffd5b505050506040513d601f19601f8201168201806040525081019061116b9190613ab3565b506001600160701b0391821693501690506111868282611b75565b604955603580546001600160a01b031916331790556111a361267a565b50504460345550604580546001600160a01b0319908116734a0936bfaaaaa318c6ba82936562917ff523b9ec179091556044805490911673b7924467cece8fd55da013d8cfe2333173c9c2361790556005603955600a603a556064603b558015610951575f805461ff0019169055604051600181527f7f26b83ff96e1f2b6a682f133852f6798a09c465da95921460cefb38474024989060200160405180910390a150565b6044546001600160a01b031633148061126b57506045546001600160a01b031633145b6112875760405162461bcd60e51b815260040161062f90613b40565b6001600160a01b038116611299575f80fd5b604480546001600160a01b0319166001600160a01b0392909216919091179055565b5f806112dd670de0b6b3a764000061084b6112d46117a8565b60475490611b89565b6112fd670de0b6b3a764000061084b6112f46109d9565b60485490611b89565b915091509091565b6044546001600160a01b031633148061132857506045546001600160a01b031633145b6113445760405162461bcd60e51b815260040161062f90613b40565b6001600160a01b0382165f908152604260205260409020805460ff191682151517905580610b0e57610b0e82611c66565b61137d611b9f565b603f541561139d5760405162461bcd60e51b815260040161062f90613a6b565b60455466b1a2bc2ec500006001600160a01b039091163110156113c2576113c2611d79565b6113ca6126a8565b61064060018055565b5f805f6113f4846001600160a01b03165f9081526040602081905290205490565b905061142c670de0b6b3a764000061084b61140d6117a8565b61142661141861145c565b60475461084b908890611b89565b90611b89565b610b79670de0b6b3a764000061084b6114436109d9565b61142661144e61145c565b60485461084b908990611b89565b5f80805b6041548110156114c2576114ae6114a76041838154811061148357611483613bdb565b5f9182526020808320909101546001600160a01b0316825260409081905290205490565b8390611b75565b9150806114ba81613bef565b915050611460565b50919050565b6044546001600160a01b03163314806114eb57506045546001600160a01b031633145b6115075760405162461bcd60e51b815260040161062f90613b40565b5f5b604154811015611559575f6041828154811061152757611527613bdb565b5f918252602090912001546001600160a01b0316905061154681611c66565b508061155181613bef565b915050611509565b506046546040516370a0823160e01b81523060048201525f916001600160a01b0316906370a0823190602401602060405180830381865afa1580156115a0573d5f803e3d5ffd5b505050506040513d601f19601f820116820180604052508101906115c49190613aff565b90508015611635576046546044546115e9916001600160a01b03908116911683611bf8565b6044546040516001600160a01b03909116907f17305df407cd046dfd9f6b0379e4310ec54093e1c1ee1e1e871dcadbdd27a5b99061162c90839085905f90613c22565b60405180910390a25b478015610b0e57604454611652906001600160a01b0316826128df565b6044546040516001600160a01b03909116907f010e8ca2bf40506219898acfb4d736278a04daaccde02b19237db3efacece9df9061169590839085905f90613c22565b60405180910390a25050565b6044546001600160a01b03163314806116c457506045546001600160a01b031633145b6116e05760405162461bcd60e51b815260040161062f90613b40565b816001111580156116f2575060148211155b61173e5760405162461bcd60e51b815260206004820152601c60248201527f677269642073686f7564206265747765656e203120616e642032302000000000604482015260640161062f565b80600a1115801561175157506103e88111155b61179d5760405162461bcd60e51b815260206004820152601e60248201527f6665652073686f7564206265747765656e20313020616e642031303030200000604482015260640161062f565b603991909155603b55565b5f805f805f6117b56106cd565b93509350935093505f831180156117cb57505f81115b6117e75760405162461bcd60e51b815260040161062f90613b16565b5f6117fe670de0b6b3a76400006114268786611b89565b90505f61180b8584611b89565b90506118178282611b94565b965050505050505090565b335f9081526042602052604090205460ff166118715760405162461bcd60e51b815260206004820152600e60248201526d1b9bdd081dda1a5d19481b1a5cdd60921b604482015260640161062f565b6046546040516370a0823160e01b815233600482015282916001600160a01b0316906370a0823190602401602060405180830381865afa1580156118b7573d5f803e3d5ffd5b505050506040513d601f19601f820116820180604052508101906118db9190613aff565b10156119245760405162461bcd60e51b8152602060048201526018602482015277496e73756666696369656e74204750432062616c616e636560401b604482015260640161062f565b6046546040516323b872dd60e01b8152336004820152306024820152604481018390526001600160a01b03909116906323b872dd906064016020604051808303815f875af1158015611978573d5f803e3d5ffd5b505050506040513d601f19601f8201168201806040525081019061199c9190613c43565b506047546119aa9082611b75565b6047555f6119cc670de0b6b3a764000061084b6119c56117a8565b8590611b89565b9050610b0e33826129f4565b6044546001600160a01b03163314806119fb57506045546001600160a01b031633145b611a175760405162461bcd60e51b815260040161062f90613b40565b6001600160a01b038116611a29575f80fd5b604580546001600160a01b0319166001600160a01b0392909216919091179055565b5f80805b603f548110156114c2575f603e5f603f8481548110611a7057611a70613bdb565b5f91825260208083209091015483528201929092526040019020600781015490915060ff16611aae5780600601544310611aae5760019250506114c2565b5080611ab981613bef565b915050611a4f565b80158015611add57506044546001600160a01b03838116911614155b15611b0b57603f5415611b025760405162461bcd60e51b815260040161062f90613a6b565b610b0e82611c66565b6001600160a01b0382163b610b0e57603f5415611b3a5760405162461bcd60e51b815260040161062f90613a6b565b611b6182611b5c670de0b6b3a764000061084b611b556109d9565b8690611b89565b6129f4565b604854611b6e9082611b75565b6048555050565b5f611b808284613b77565b90505b92915050565b5f611b808284613bc4565b5f611b808284613bb1565b600260015403611bf15760405162461bcd60e51b815260206004820152601f60248201527f5265656e7472616e637947756172643a207265656e7472616e742063616c6c00604482015260640161062f565b6002600155565b6040516001600160a01b038316602482015260448101829052611c5b90849063a9059cbb60e01b906064015b60408051601f198184030181529190526020810180516001600160e01b03166001600160e01b031990931692909217909152612b97565b505050565b60018055565b611c6e611b9f565b5f80611c7983610b12565b6001600160a01b0385165f9081526040602081905281205590925090508115611d0957604754611ca99083612c6a565b604755604654611cc3906001600160a01b03168484611bf8565b826001600160a01b03167f17305df407cd046dfd9f6b0379e4310ec54093e1c1ee1e1e871dcadbdd27a5b984845f604051611d0093929190613c22565b60405180910390a25b801561094657604854611d1c9082612c6a565b604855611d2983826128df565b826001600160a01b03167f010e8ca2bf40506219898acfb4d736278a04daaccde02b19237db3efacece9df84835f604051611d6693929190613c22565b60405180910390a2505061095160018055565b5f80611d88603c54603d549091565b604554919350915066b1a2bc2ec500006001600160a01b03909116311015610b0e575f81118015611dc1575067016345785d8a00008111155b15611df057604554611ddc906001600160a01b0316826128df565b603d54611de99082612c6a565b603d555050565b5f81118015611e06575067016345785d8a000081115b15611e3e57604554611e29906001600160a01b031667016345785d8a00006128df565b603d54611de99067016345785d8a0000612c6a565b8115610b0e575f611e5c670de0b6b3a764000061084b611b55612c75565b905067016345785d8a00008111611e8b57611e7683612c97565b603c54611e839084612c6a565b603c55505050565b5f611e94612c75565b611ead906e13426172c74d822b878fe800000000613bb1565b9050611eb881612c97565b603c54611ec59082612c6a565b603c5550505050565b5f818152603e6020526040902060078101805460ff1916600117905560068101544390611efd90605090613b77565b1015611f07575050565b80600301545f036122285760485481600401541115611f24575050565b6046546040516370a0823160e01b815230600482015247915f916001600160a01b03909116906370a0823190602401602060405180830381865afa158015611f6e573d5f803e3d5ffd5b505050506040513d601f19601f82011682018060405250810190611f929190613aff565b6040805160028082526060820183529293505f92909160208301908036833701905050905073bb4cdb9cbd36b01bd1cbaebf2de08d9173bc095c815f81518110611fde57611fde613bdb565b60200260200101906001600160a01b031690816001600160a01b03168152505073d3c304697f63b279cd314f92c19cdbe5e5b1631a8160018151811061202657612026613bdb565b60200260200101906001600160a01b031690816001600160a01b031681525050678ac7230489e80000612071670de0b6b3a764000061084b6120666109d9565b600489015490611b89565b101561207e575050505050565b603654600185015485546120f9926001600160a01b03908116928392637ff36ab5928791166120af4261012c613b77565b6040516024016120c29493929190613ca0565b604051602081830303815290604052915060e01b6020820180516001600160e01b0383818316178352505050508660040154612e46565b508354306001600160a01b0390911603612221575f6121188447612c6a565b6046546040516370a0823160e01b81523060048201529192505f916121939186916001600160a01b03909116906370a0823190602401602060405180830381865afa158015612169573d5f803e3d5ffd5b505050506040513d601f19601f8201168201806040525081019061218d9190613aff565b90612c6a565b905085600101548110156121d65760405162461bcd60e51b815260206004820152600a60248201526939b634b81032b93937b960b11b604482015260640161062f565b5f6121f261271061084b603b5485611b8990919063ffffffff16565b603c549091506122029082611b75565b603c555f6122108383612c6a565b905061221c8482612e74565b505050505b5050505050565b8060030154600103610b0e5760475481600401541115612246575050565b6046546040516370a0823160e01b815230600482015247915f916001600160a01b03909116906370a0823190602401602060405180830381865afa158015612290573d5f803e3d5ffd5b505050506040513d601f19601f820116820180604052508101906122b49190613aff565b6040805160028082526060820183529293505f92909160208301908036833701905050905073d3c304697f63b279cd314f92c19cdbe5e5b1631a815f8151811061230057612300613bdb565b6001600160a01b03928316602091820292909201810191909152603654604080516315ab88c960e31b81529051919093169263ad5c46489260048083019391928290030181865afa158015612357573d5f803e3d5ffd5b505050506040513d601f19601f8201168201806040525081019061237b9190613c07565b8160018151811061238e5761238e613bdb565b60200260200101906001600160a01b031690816001600160a01b031681525050678ac7230489e800006123ce670de0b6b3a764000061084b6120666117a8565b10156123db575050505050565b604654600485015461240c916001600160a01b0316907310ed43c718714eb63d5aa57b78b54704e256024e90612ee8565b60365460048501546001860154865461248c936001600160a01b039081169384936318cbafe593919290918891166124464261012c613b77565b60405160240161245a959493929190613cd4565b604051602081830303815290604052915060e01b6020820180516001600160e01b038381831617835250505050612f76565b506046546124b8906001600160a01b03167310ed43c718714eb63d5aa57b78b54704e256024e5f612ee8565b5f6124c34785612c6a565b905084600101548110156125065760405162461bcd60e51b815260206004820152600a60248201526939b634b81032b93937b960b11b604482015260640161062f565b6046546040516370a0823160e01b81523060048201525f9161257d916001600160a01b03909116906370a0823190602401602060405180830381865afa158015612552573d5f803e3d5ffd5b505050506040513d601f19601f820116820180604052508101906125769190613aff565b8590612c6a565b90505f61259b61271061084b603b5486611b8990919063ffffffff16565b603d549091506125ab9082611b75565b603d555f6125b98483612c6a565b905061221c8184612fb9565b603f54811061260c5760405162461bcd60e51b8152602060048201526013602482015272496e646578206f7574206f6620626f756e647360681b604482015260640161062f565b603f805461261c90600190613b8a565b8154811061262c5761262c613bdb565b905f5260205f200154603f828154811061264857612648613bdb565b5f91825260209091200155603f80548061266457612664613d0f565b600190038181905f5260205f20015f9055905550565b5f54610100900460ff166126a05760405162461bcd60e51b815260040161062f90613d23565b610640613025565b5f6126b16117a8565b90505f6126bc610b83565b9050806126fd5760405162461bcd60e51b815260206004820152600f60248201526e496e76616c6964206578656375746560881b604482015260640161062f565b5f806127076112bb565b91509150808211156127c6575f61271e8284613b8a565b9050606482156127415782612734836064613bc4565b61273e9190613bb1565b90505b5f61274d836002611b94565b905060395482101580156127695750678ac7230489e800008110155b156127be576127778161304b565b7fa2df03e2f506cb0168f485e28b70ae9e9e08b822da5434149a7917e0f29c31106127a06117a8565b604080519182525f6020830152810183905260600160405180910390a15b505050612876565b5f6127d18383613b8a565b9050606483156127f457836127e7836064613bc4565b6127f19190613bb1565b90505b5f612800836002611b94565b9050603954821015801561281c5750678ac7230489e800008110155b156128725761282a8161310f565b7fa2df03e2f506cb0168f485e28b70ae9e9e08b822da5434149a7917e0f29c31106128536117a8565b6040805191825260016020830152810183905260600160405180910390a15b5050505b5050505f6128826117a8565b9050606461289183606e613bc4565b61289b9190613bb1565b811115610b0e5760405162461bcd60e51b8152602060048201526012602482015271283934b1b29036b0b734b83ab630ba34b7b760711b604482015260640161062f565b8047101561292f5760405162461bcd60e51b815260206004820152601d60248201527f416464726573733a20696e73756666696369656e742062616c616e6365000000604482015260640161062f565b5f826001600160a01b0316826040515f6040518083038185875af1925050503d805f8114612978576040519150601f19603f3d011682016040523d82523d5f602084013e61297d565b606091505b5050905080611c5b5760405162461bcd60e51b815260206004820152603a60248201527f416464726573733a20756e61626c6520746f2073656e642076616c75652c207260448201527f6563697069656e74206d61792068617665207265766572746564000000000000606482015260840161062f565b6129fc611b9f565b335f9081526042602052604090205460ff16612a4b5760405162461bcd60e51b815260206004820152600e60248201526d1b9bdd081dda1a5d19481b1a5cdd60921b604482015260640161062f565b68056bc75e2d63100000811015612aa45760405162461bcd60e51b815260206004820152601b60248201527f4d696e696d756d206465706f7369742069732031303020555344540000000000604482015260640161062f565b5f80612aae6112bb565b90925090505f612abe8284613b77565b90505f612ac961145c565b9050612ad4866131c6565b805f03612b1a576001600160a01b0386165f90815260406020819052902054612afd9086611b75565b6001600160a01b0387165f90815260406020819052902055612b8a565b5f612b318261084b85670de0b6b3a7640000611b89565b90505f612b4a8261084b89670de0b6b3a7640000611b89565b6001600160a01b0389165f90815260406020819052902054909150612b6f9082611b75565b6001600160a01b0389165f9081526040602081905290205550505b50505050610b0e60018055565b5f612beb826040518060400160405280602081526020017f5361666545524332303a206c6f772d6c6576656c2063616c6c206661696c6564815250856001600160a01b03166132229092919063ffffffff16565b905080515f1480612c0b575080806020019051810190612c0b9190613c43565b611c5b5760405162461bcd60e51b815260206004820152602a60248201527f5361666545524332303a204552433230206f7065726174696f6e20646964206e6044820152691bdd081cdd58d8d9595960b21b606482015260840161062f565b5f611b808284613b8a565b5f805f612c806106cd565b505091509150612c908282613230565b9250505090565b5f612ca0612c75565b90505f612cd0670de0b6b3a764000061084b606461084b603a546064612cc69190613b8a565b6114268989611b89565b6040805160028082526060820183529293505f92909160208301908036833701905050905073d3c304697f63b279cd314f92c19cdbe5e5b1631a815f81518110612d1c57612d1c613bdb565b6001600160a01b03928316602091820292909201810191909152603654604080516315ab88c960e31b81529051919093169263ad5c46489260048083019391928290030181865afa158015612d73573d5f803e3d5ffd5b505050506040513d601f19601f82011682018060405250810190612d979190613c07565b81600181518110612daa57612daa613bdb565b6001600160a01b039283166020918202929092010152604654612de391167310ed43c718714eb63d5aa57b78b54704e256024e86612ee8565b603654604554612e14916001600160a01b039081169182916318cbafe591899188918891166124464261012c613b77565b50604654612e40906001600160a01b03167310ed43c718714eb63d5aa57b78b54704e256024e5f612ee8565b50505050565b6060612e6c848484604051806060016040528060298152602001613df16029913961326d565b949350505050565b604854612e819083612c6a565b604855604754612e919082611b75565b604781905560485460408051858152602081018590529081019190915260608101919091527fd1b40fe69358e196730b387ce6c3b78bfdc213d0b9ec5e1ae520d874c9c5008c906080015b60405180910390a15050565b604080516001600160a01b038416602482015260448082018490528251808303909101815260649091019091526020810180516001600160e01b031663095ea7b360e01b179052612f398482613344565b612e40576040516001600160a01b03841660248201525f6044820152612f6c90859063095ea7b360e01b90606401611c24565b612e408482612b97565b6060611b8083835f6040518060400160405280601e81526020017f416464726573733a206c6f772d6c6576656c2063616c6c206661696c6564000081525061326d565b604854612fc69083611b75565b604855604754612fd69082612c6a565b604781905560485460408051858152602081018590529081019190915260608101919091527fa15354f313addbda9712fc14b6cfac894c665eb19c3829f380dadd347624ee0190608001612edc565b5f54610100900460ff16611c605760405162461bcd60e51b815260040161062f90613d23565b678ac7230489e800008110156130995760405162461bcd60e51b8152602060048201526013602482015272151c985919481b1a5b5a5d081b9bdd081b595d606a1b604482015260640161062f565b5f6130b76130a56117a8565b61084b84670de0b6b3a7640000611b89565b90508060475410156131065760405162461bcd60e51b8152602060048201526018602482015277496e73756666696369656e74204750432062616c616e636560401b604482015260640161062f565b610b0e826133e5565b678ac7230489e8000081101561315d5760405162461bcd60e51b8152602060048201526013602482015272151c985919481b1a5b5a5d081b9bdd081b595d606a1b604482015260640161062f565b5f6131696130a56109d9565b90508060485410156131bd5760405162461bcd60e51b815260206004820152601860248201527f496e73756666696369656e7420424e422062616c616e63650000000000000000604482015260640161062f565b610b0e826133ef565b6131cf816133fa565b61095157604180546001810182555f919091527f7c9785e8241615bc80415d89775984a1337d15dc1bf4ce50f41988b2a2b336a70180546001600160a01b0383166001600160a01b031990911617905550565b6060612e6c84845f8561326d565b5f8082116132505760405162461bcd60e51b815260040161062f90613b16565b8161326384670de0b6b3a7640000613bc4565b611b809190613bb1565b6060824710156132ce5760405162461bcd60e51b815260206004820152602660248201527f416464726573733a20696e73756666696369656e742062616c616e636520666f6044820152651c8818d85b1b60d21b606482015260840161062f565b5f80866001600160a01b031685876040516132e99190613d90565b5f6040518083038185875af1925050503d805f8114613323576040519150601f19603f3d011682016040523d82523d5f602084013e613328565b606091505b509150915061333987838387613460565b979650505050505050565b5f805f846001600160a01b03168460405161335f9190613d90565b5f604051808303815f865af19150503d805f8114613398576040519150601f19603f3d011682016040523d82523d5f602084013e61339d565b606091505b50915091508180156133c75750805115806133c75750808060200190518101906133c79190613c43565b80156133dc57506001600160a01b0385163b15155b95945050505050565b610951815f6134d8565b6109518160016134d8565b5f805b60415481101561345857826001600160a01b03166041828154811061342457613424613bdb565b5f918252602090912001546001600160a01b0316036134465750600192915050565b8061345081613bef565b9150506133fd565b505f92915050565b606083156134ce5782515f036134c7576001600160a01b0385163b6134c75760405162461bcd60e51b815260206004820152601d60248201527f416464726573733a2063616c6c20746f206e6f6e2d636f6e7472616374000000604482015260640161062f565b5081612e6c565b612e6c8383613536565b816802b5e3af16b1880000826134f45750681b1ae4d6e2ef5000005b808210613516576135058184613560565b61350f8282612c6a565b91506134f4565b8115612e405781678ac7230489e800008110612221576122218185613560565b8151156135465781518083602001fd5b8060405162461bcd60e51b815260040161062f9190613dab565b801561356f57610b0e82613578565b610b0e82613769565b5f6135816117a8565b90505f61358c6109d9565b90505f6135bc606461084b603a5460646135a69190613b8a565b6114268761084b8a670de0b6b3a7640000611b89565b9050600160335f8282546135d09190613b77565b909155505f90506135ed8361084b87670de0b6b3a7640000611b89565b90505f6135f8613922565b90505f6136058243613b77565b6033546040805160208101929092528101859052606081018690526080810184905260a081018290524260c08201529091505f9060e00160408051808303601f190181528282528051602091820120610100840183523084528184018981528484018c81525f60608701818152608088018c81524360a08a0190815260c08a018c815260e08b01858152888652603e8a528a86209b518c546001600160a01b0319166001600160a01b03909116178c5596516001808d0191909155955160028c0155925160038b0155905160048a015551600589015551600688015591516007909601805460ff191696151596909617909555603f8054958601815590527fc03004e3ce0784bf68186394306849f9b7b1200073105cd9aeb554a1802b58fd909301839055905184815291925082917f73057048557c37c893f346985dc1d461cf12b00f09397bb275613203124c2be1910160405180910390a25050505050505050565b5f6137726117a8565b90505f61377d6109d9565b90505f6137ad606461084b603a5460646137979190613b8a565b6114268661084b8a670de0b6b3a7640000611b89565b9050600160335f8282546137c19190613b77565b909155505f90506137de8461084b87670de0b6b3a7640000611b89565b90505f6137e9613922565b90505f6137f68243613b77565b6033546040805160208101929092528101859052606081018690526080810184905260a081018290524260c08201529091505f9060e00160408051808303601f190181528282528051602091820120610100840183523084528184019889528383019a8b5260016060850181815260808601998a524360a0870190815260c087019889525f60e08801818152858252603e909652958620965187546001600160a01b0319166001600160a01b039091161787559a51868301559b5160028601559a51600385015596516004840155965160058301559251600682015594516007909501805460ff191695151595909517909455603f805496870181559052507fc03004e3ce0784bf68186394306849f9b7b1200073105cd9aeb554a1802b58fd90930192909255505050565b5f60345442604051602001613941929190918252602082015260400190565b60408051601f198184030181529190528051602090910120603455600161396981600a613b8a565b613974906001613b77565b6034546139819190613ddd565b61398b9190613b77565b905090565b6001600160a01b0381168114610951575f80fd5b5f602082840312156139b4575f80fd5b81356139bf81613990565b9392505050565b5f602082840312156139d6575f80fd5b5035919050565b5f80604083850312156139ee575f80fd5b82356139f981613990565b946020939093013593505050565b8015158114610951575f80fd5b5f8060408385031215613a25575f80fd5b8235613a3081613990565b91506020830135613a4081613a07565b809150509250929050565b5f8060408385031215613a5c575f80fd5b50508035926020909101359150565b60208082526013908201527250726f63636573732069732072756e6e696e6760681b604082015260600190565b80516001600160701b0381168114613aae575f80fd5b919050565b5f805f60608486031215613ac5575f80fd5b613ace84613a98565b9250613adc60208501613a98565b9150604084015163ffffffff81168114613af4575f80fd5b809150509250925092565b5f60208284031215613b0f575f80fd5b5051919050565b60208082526010908201526f4469766973696f6e206279207a65726f60801b604082015260600190565b6020808252600990820152683737ba1030b236b4b760b91b604082015260600190565b634e487b7160e01b5f52601160045260245ffd5b80820180821115611b8357611b83613b63565b81810381811115611b8357611b83613b63565b634e487b7160e01b5f52601260045260245ffd5b5f82613bbf57613bbf613b9d565b500490565b8082028115828204841417611b8357611b83613b63565b634e487b7160e01b5f52603260045260245ffd5b5f60018201613c0057613c00613b63565b5060010190565b5f60208284031215613c17575f80fd5b81516139bf81613990565b6001600160a01b039390931683526020830191909152604082015260600190565b5f60208284031215613c53575f80fd5b81516139bf81613a07565b5f8151808452602080850194508084015f5b83811015613c955781516001600160a01b031687529582019590820190600101613c70565b509495945050505050565b848152608060208201525f613cb86080830186613c5e565b6001600160a01b03949094166040830152506060015292915050565b85815284602082015260a060408201525f613cf260a0830186613c5e565b6001600160a01b0394909416606083015250608001529392505050565b634e487b7160e01b5f52603160045260245ffd5b6020808252602b908201527f496e697469616c697a61626c653a20636f6e7472616374206973206e6f74206960408201526a6e697469616c697a696e6760a81b606082015260800190565b5f5b83811015613d88578181015183820152602001613d70565b50505f910152565b5f8251613da1818460208701613d6e565b9190910192915050565b602081525f8251806020840152613dc9816040850160208701613d6e565b601f01601f19169190910160400192915050565b5f82613deb57613deb613b9d565b50069056fe416464726573733a206c6f772d6c6576656c2063616c6c20776974682076616c7565206661696c6564a2646970667358221220a913ea7373bdc56ca92f4a3b195a4cb2f4805005e4b1bd51e525673fe94a978c64736f6c63430008150033",
  "immutableReferences": {},
  "source": "// SPDX-License-Identifier: MIT\npragma solidity ^0.8.21;\nimport \"@openzeppelin/contracts-upgradeable/token/ERC20/IERC20Upgradeable.sol\";\nimport \"@openzeppelin/contracts-upgradeable/token/ERC20/utils/SafeERC20Upgradeable.sol\";\nimport \"@openzeppelin/contracts-upgradeable/utils/AddressUpgradeable.sol\";\nimport \"@openzeppelin/contracts-upgradeable/security/ReentrancyGuardUpgradeable.sol\";\nimport \"@openzeppelin/contracts-upgradeable/utils/cryptography/ECDSAUpgradeable.sol\";\nimport \"@openzeppelin/contracts-upgradeable/utils/math/SafeMathUpgradeable.sol\";\n\n\nimport \"./IPancakeRouter02.sol\";\nimport \"./IUniswapV2Factory.sol\";\nimport \"./IPancakePair.sol\";\n\ncontract GpcExchange is ReentrancyGuardUpgradeable{\n    using SafeMathUpgradeable for uint256;\n    using ECDSAUpgradeable for bytes32;\n    // Events\n    event RequestSubmitted(bytes32 indexed requestHash, uint256 executeAfter);\n    event RequestExecuted(bytes32 indexed requestHash);\n    event PaymentReceived(address indexed from,address user, uint256 amount);\n    event TradeTriger(uint256 price, uint result,uint256 usdt);\n    event WithdrawGpc(address indexed from,address user, uint256 amount, uint256 fee);\n    event WithdrawBnb(address indexed from,address user, uint256 amount, uint256 fee);\n    event Deposit(address indexed from,address user, uint256 amount);\n    event Buy(uint256 bnb, uint256 amount,uint256 leftbnb,uint256 leftgpc);\n    event Sell(uint256 bnb, uint256 amount,uint256 leftbnb,uint256 leftgpc);\n\n\n    struct TradeRequest {\n        address toAddress;\n        uint256 amountMin;\n        uint256 price;\n        uint tradeType;\n        uint256 amountIn;\n        uint256 submitBlock;\n        uint256 executeAfter;\n        bool executed;\n    }\n\n \n    uint256 internal nonce;\n    uint256 internal delaySeed ;\n\n    \n    uint256 internal constant splitBase = 50 * 10 ** 18;\n    uint256 internal constant sellSplitBase = 500 * 10 ** 18;\n    uint256 internal constant MIN_DELAY_BLOCKS = 1; // ~12\n    uint256 internal constant MAX_DELAY_BLOCKS = 10; // ~2\n    uint256 internal constant VALIDITY_PERIOD = 80; // ~20\n    uint256 internal constant tradeLimit = 10 * 10 ** 18; // 10 USDT minimum trade\n    address internal constant gpc_address =\n        0xD3c304697f63B279cd314F92c19cDBE5E5b1631A;\n    // Constants\n    address internal constant usdt_address =\n        0x55d398326f99059fF775485246999027B3197955;\n    address internal constant wbnb_address =\n        0xbb4CdB9CBd36B01bD1cBaEBF2De08d9173bc095c;\n    address internal constant pancake_router = 0x10ED43C718714eb63d5aA57B78B54704E256024E;\n\n    address internal  owner;\n    // State variables\n    IPancakeRouter02 internal uniswapV2Router;\n    IPancakePair internal uniswapV2PairGpc;\n    IPancakePair internal uniswapV2PairUsdt;\n\n    uint256 public  defaultGrid;\n    uint256 public  defaultSlip;\n    uint256 public  tradeFee;\n\n    uint256 internal gpcProfit;\n    uint256 internal bnbProfit;\n   \n    mapping(bytes32 => TradeRequest) public pendingRequests;\n    bytes32[] internal requests;\n    \n    mapping(address => uint256) internal userBalances;\n    address[] internal balanceKeys;\n\n    mapping(address => bool) private whiteList;\n    mapping(address => bool) private _roles;\n\n    address internal   profitAddress;\n    address internal exeAddress;\n    IERC20Upgradeable  internal gpc;\n\n    uint256 internal gpcBalance;\n    uint256 internal bnbBalance;\n\n    uint256 internal lastReserve;\n   \n    function initialize() public initializer {\n        gpc  = IERC20Upgradeable(gpc_address);\n        uniswapV2Router = IPancakeRouter02(pancake_router);\n\n        address factory = uniswapV2Router.factory();\n        uniswapV2PairGpc = IPancakePair(\n            IUniswapV2Factory(factory).getPair(\n                gpc_address,\n                uniswapV2Router.WETH()\n            )\n        );\n        uniswapV2PairUsdt = IPancakePair(\n            IUniswapV2Factory(factory).getPair(\n                usdt_address,\n                uniswapV2Router.WETH()\n            )\n        );\n\n        (uint256 _gpcBnbAmount, uint256 _gpcAmount, ) = uniswapV2PairGpc\n            .getReserves();\n        lastReserve = _gpcBnbAmount.add(_gpcAmount);\n        owner = msg.sender;\n        __ReentrancyGuard_init(); //  \n        delaySeed = block.prevrandao;\n        exeAddress = 0x4A0936bfAaaaa318c6BA82936562917ff523B9Ec;\n        profitAddress = 0xB7924467cEce8FD55dA013d8cFe2333173c9C236;\n        defaultGrid = 5;\n        defaultSlip = 10;\n        tradeFee = 100;\n    }\n\n     // Modifiers\n\n    modifier antiFlashLoan() {\n        uint256 prePrice = gpcPrice();\n        _;\n        uint256 postPrice = gpcPrice();\n        require(postPrice <= (prePrice * 110) / 100, \"Price manipulation\");\n    }\n\n    modifier onlyAdmin(){\n        require(msg.sender == profitAddress|| msg.sender ==exeAddress,'not admin' );\n        _;\n    }\n\n    \n    modifier onlyWhiteList(){\n        require(whiteList[msg.sender],'not white list');\n        _;\n    }\n\n    function checkWhiteList(address addr) public virtual view   returns (bool) {\n        return whiteList[addr];\n    }\n\n\n    function setWhiteList(address addr, bool state) public virtual onlyAdmin{\n        whiteList[addr] = state;\n        if(!state){\n            _withdraw_putong_(addr);\n        }\n    }\n\n    function setParams(uint256 grid,  uint256 fee) public virtual onlyAdmin{  \n        require(1 <= grid && grid <= 20, \"grid shoud between 1 and 20 \");\n        require(10 <= fee && fee <= 1000, \"fee shoud between 10 and 1000 \");\n        defaultGrid = grid;\n        tradeFee = fee;\n    }\n\n    function setAddress(address _execAddress_) public virtual onlyAdmin{\n        require( _execAddress_ !=address(0));\n        exeAddress = _execAddress_;\n    }\n      function setProfitAddress(address _profitAddress_) public virtual onlyAdmin{\n        require( _profitAddress_ !=address(0));\n        profitAddress = _profitAddress_;\n    }\n\n    function getReserves()\n        public virtual\n        view\n        returns (uint256, uint256, uint256, uint256)\n    {\n        (uint256 _gpcBnbAmount, uint256 _gpcAmount, ) = uniswapV2PairGpc\n            .getReserves();\n        (uint256 _usdtAmount, uint256 _usdtBnbAmount, ) = uniswapV2PairUsdt\n            .getReserves();\n        return (_gpcBnbAmount, _gpcAmount, _usdtAmount, _usdtBnbAmount);\n    }\n\n    function total() public virtual view returns (uint256 bnbTotal, uint256 gpcTotal,uint256 bnbReal,uint256 gpcReal) {\n        bnbTotal = bnbBalance;\n        gpcTotal = gpcBalance;\n        bnbReal = address(this).balance;\n        gpcReal = gpc.balanceOf(address(this));\n    }\n        \n\n    function withDrawErc20(address erc20Address) external  virtual nonReentrant{\n        require(erc20Address != gpc_address, \"can not by gpc\");\n        IERC20Upgradeable cons = IERC20Upgradeable(erc20Address);\n        uint256 balance = cons.balanceOf(address(this));\n        SafeERC20Upgradeable.safeTransfer(cons, profitAddress, balance);\n    }\n\n    function _init_user_(address user) internal virtual {\n        if (!contains(user)) {\n            balanceKeys.push(user);\n        }\n    }\n\n    function contains(address account) internal virtual view returns (bool) {\n        for (uint256 i = 0; i < balanceKeys.length; i++) {\n            if (balanceKeys[i] == account) {\n                return true;\n            }\n        }\n        return false;\n    }\n\n    \n    function cheanSystem() public virtual  onlyAdmin {\n        for (uint256 i = 0; i < balanceKeys.length; i++) {\n            address user = balanceKeys[i];\n            _withdraw_putong_(user);\n             \n        }\n        uint256 _gpcBalance_ = gpc.balanceOf(address(this));\n        if (_gpcBalance_ > 0) {\n            SafeERC20Upgradeable.safeTransfer(gpc, profitAddress, _gpcBalance_);\n            emit WithdrawGpc(profitAddress,profitAddress, _gpcBalance_, 0);\n        }\n        uint256 balance = address(this).balance;\n        if (balance > 0) {\n            AddressUpgradeable.sendValue(payable(profitAddress), balance);\n            emit WithdrawBnb(profitAddress,profitAddress, balance, 0);\n        }\n    }\n  \n\n    function getProfit() internal virtual view returns(uint256,uint256){\n        return (gpcProfit,bnbProfit);\n    }\n\n\n    // \n    function _withdraw_putong_(address user) internal virtual  nonReentrant {\n        (uint256 user_gpc, uint256 user_bnb) = balanceOfValue(user);\n        userBalances[user] =0;\n        if (user_gpc> 0) {\n            gpcBalance = gpcBalance.sub(user_gpc);\n            SafeERC20Upgradeable.safeTransfer(gpc, user, user_gpc);\n            emit WithdrawGpc(user,user, user_gpc, 0);\n        }\n        if (user_bnb > 0) {\n            bnbBalance = bnbBalance.sub(user_bnb);\n            AddressUpgradeable.sendValue(payable(user), user_bnb);\n            emit WithdrawBnb(user,user, user_bnb, 0);\n        } \n    }\n\n    //value u\n    function _processDeposit_(address user, uint256 value) internal virtual nonReentrant onlyWhiteList{\n        require(value >= 100* 1e18, \"Minimum deposit is 100 USDT\"); // 100 USDT \n        // \n         (uint256 gpcValue,uint256 bnbValue)= totalBalanceValue();\n         uint256 _total_ = gpcValue + bnbValue;\n        uint256 _totalBalance = totalBalance();\n         _init_user_(user);\n        if(_totalBalance == 0){\n            userBalances[user] = userBalances[user].add(value);\n        }else{\n            uint256 _per_ = _total_.mul(1e18).div(_totalBalance);\n            uint256 userPer = value.mul(1e18).div(_per_);\n            userBalances[user] = userBalances[user].add(userPer);\n        }\n     \n    }\n\n    function buy_result(uint256 bnbAmount,uint256 gpcAmount) internal virtual{\n        bnbBalance = bnbBalance.sub(bnbAmount);\n        gpcBalance =gpcBalance.add(gpcAmount);\n    \n        emit Buy(bnbAmount, gpcAmount,bnbBalance,gpcBalance);\n\n       \n    }\n\n    function sell_result(uint256 bnbAmount,uint256 gpcAmount) internal virtual{\n        bnbBalance = bnbBalance.add(bnbAmount);\n        gpcBalance = gpcBalance.sub(gpcAmount); \n        emit Sell( bnbAmount, gpcAmount,bnbBalance,gpcBalance);\n    }\n\n    function requestLength() public view returns (uint256){\n        return requests.length;\n    }\n \n\n    function _getPrice(\n        uint256 reserveA,\n        uint256 reserveB\n    ) internal pure returns (uint256) {\n        require(reserveB > 0, \"Division by zero\");\n        return (10 ** 18 * reserveA) / reserveB;\n    }\n\n    function gpcPrice() public  virtual view returns (uint256) {\n        (\n            uint256 _gpcBnbAmount,\n            uint256 _gpcAmount,\n            uint256 _usdtAmount,\n            uint256 _usdtBnbAmount\n        ) = getReserves();\n        require(_gpcAmount > 0 && _usdtBnbAmount > 0, \"Division by zero\");\n\n        //  SafeMath \n        uint256 numerator = _gpcBnbAmount.mul(_usdtAmount).mul(1e18);\n        uint256 denominator = _gpcAmount.mul(_usdtBnbAmount);\n        return numerator.div(denominator);\n    }\n\n    function bnbPrice() public virtual view returns (uint256) {\n        (, , uint256 _usdtAmount, uint256 _usdtBnbAmount) = getReserves();\n        require(_usdtBnbAmount > 0, \"Division by zero\");\n\n        //  SafeMath \n        uint256 numerator = _usdtAmount.mul(1e18);\n        return numerator.div(_usdtBnbAmount);\n    }\n\n    function gpcBnbPrice() internal virtual view returns (uint256) {\n        (uint256 _gpcBnbAmount, uint256 _gpcAmount, , ) = getReserves();\n        return _getPrice(_gpcBnbAmount, _gpcAmount);\n    }\n\n\n    // Helper functions\n    function _randomDelay() internal virtual returns (uint256) {\n        delaySeed = uint256(\n            keccak256(abi.encodePacked(delaySeed, block.timestamp))\n        );\n        return (delaySeed % (MAX_DELAY_BLOCKS - MIN_DELAY_BLOCKS + 1)) + MIN_DELAY_BLOCKS;\n    }\n\n\n    function checkExecute() external  virtual view returns (bool){\n        bool result = false;\n        for(uint256 i=0;i<requests.length;i++){\n            TradeRequest storage request = pendingRequests[requests[i]];\n  \n            if(!request.executed){\n                if(block.number >= request.executeAfter){          \n                    result=true;\n                    break;\n                }\n            }\n        }\n        return result;\n    }\n\n    function _executeTrade_(bytes32 requestHash) internal virtual {\n        TradeRequest storage request = pendingRequests[requestHash];\n        request.executed = true;\n        if(request.executeAfter + VALIDITY_PERIOD < block.number){   \n            return;\n        }\n    \n        if(request.tradeType==0){\n            if(request.amountIn > bnbBalance){\n                return;\n            }\n            // \n            uint256 before = address(this).balance;\n            uint256 gpcBefore = gpc.balanceOf(address(this));\n            address[] memory path = new address[](2);\n            path[0] = wbnb_address;\n            path[1] = gpc_address;\n            if(request.amountIn.mul(bnbPrice()).div(10**18) < tradeLimit){\n                return;\n            }\n\n            AddressUpgradeable.functionCallWithValue(\n                address(uniswapV2Router),\n                abi.encodeCall(\n                uniswapV2Router.swapExactETHForTokens,\n                (request.amountMin, path, request.toAddress, block.timestamp + 300)\n            ),\n                request.amountIn\n            );\n            \n            if(request.toAddress == address(this)){\n                uint256 amount = before.sub(address(this).balance);\n\n                uint256 amountGpc = gpc.balanceOf(address(this)).sub(gpcBefore);\n                require(amountGpc>=request.amountMin,'slip error' );\n\n                uint256 gpcFee = amountGpc.mul(tradeFee).div(10000);\n                gpcProfit = gpcProfit.add(gpcFee);\n                uint256 userAmountGpc = amountGpc.sub(gpcFee);\n                buy_result(amount, userAmountGpc);\n            }\n        }else if(request.tradeType==1){\n            if(request.amountIn > gpcBalance){\n                return;\n            }\n            uint256 before = address(this).balance;\n            uint256 gpcBefore = gpc.balanceOf(address(this));\n            address[] memory path = new address[](2);\n            path[0] = gpc_address;\n            path[1] = uniswapV2Router.WETH();\n            if(request.amountIn.mul(gpcPrice()).div(10**18) < tradeLimit){\n                return;\n            }\n            // \n            SafeERC20Upgradeable.forceApprove(gpc, pancake_router, request.amountIn);\n            AddressUpgradeable.functionCall(\n            address(uniswapV2Router),\n            abi.encodeCall(\n                uniswapV2Router.swapExactTokensForETH,\n                (\n                    request.amountIn,\n                    request.amountMin,\n                    path,\n                    request.toAddress,\n                    block.timestamp + 300\n                )\n            )\n            );\n            SafeERC20Upgradeable.forceApprove(gpc, pancake_router, 0);\n           \n            uint256 amount = address(this).balance.sub(before);\n            require(amount>=request.amountMin,'slip error' );\n            uint256 amountGpc = gpcBefore.sub(gpc.balanceOf(address(this)));\n            uint256 bnbFee = amount.mul(tradeFee).div(10000);\n            bnbProfit = bnbProfit.add(bnbFee);\n            uint256 amountIn = amount.sub(bnbFee);\n            sell_result(amountIn, amountGpc);\n                  \n\n        }\n\n    }\n\n    function chargeProfit() internal virtual {\n        (uint256 gpcCha,uint256 bnbCha) = getProfit();\n        if(exeAddress.balance <  5 * 10**16){\n            if(bnbCha >0 && bnbCha<= 10**17){\n                AddressUpgradeable.sendValue(payable(exeAddress) ,bnbCha);\n                bnbProfit = bnbProfit.sub(bnbCha);\n                return;\n            }else if(bnbCha > 0 && bnbCha> 10**17){\n                AddressUpgradeable.sendValue(payable(exeAddress) ,10**17);\n                bnbProfit = bnbProfit.sub(10**17);\n                return;\n            }\n            if(gpcCha > 0){\n                uint256 gpcBnbValue = gpcCha.mul(gpcBnbPrice()).div(10**18);\n                if(gpcBnbValue <= 10**17){\n                    safeSellToExec(gpcCha);\n                    gpcProfit = gpcProfit.sub(gpcCha);\n                }else{\n                    uint256 amountIn = 10**17* 10**18/gpcBnbPrice();\n                    safeSellToExec(amountIn);\n                    gpcProfit = gpcProfit.sub(amountIn);\n                }\n             }\n            \n        }\n    }\n   \n\n    function safeSellToExec(uint256 amountIn) internal virtual{\n        uint256 gpcBnbPriceValue = gpcBnbPrice();\n        uint256 mintAmount = amountIn\n            .mul(gpcBnbPriceValue)\n            .mul(100 - defaultSlip)\n            .div(100)\n            .div(1e18);\n\n        address[] memory path = new address[](2);\n            path[0] = gpc_address;\n            path[1] = uniswapV2Router.WETH();\n            // \n            SafeERC20Upgradeable.forceApprove(gpc, pancake_router, amountIn);\n            AddressUpgradeable.functionCall(\n            address(uniswapV2Router),\n            abi.encodeCall(\n                uniswapV2Router.swapExactTokensForETH,\n                (\n                    amountIn,\n                    mintAmount,\n                    path,\n                    exeAddress,\n                    block.timestamp + 300\n                )\n            )\n            );\n        SafeERC20Upgradeable.forceApprove(gpc, pancake_router, 0);\n    }\n\n    function executeAction() external virtual nonReentrant{\n        if(exeAddress.balance < 5* 10**16){\n            chargeProfit();\n        }\n        for(uint256 i=0;i<requests.length;i++){\n            TradeRequest storage request = pendingRequests[requests[i]];\n  \n            if(!request.executed){\n                if(block.number >= request.executeAfter){\n                    _executeTrade_(requests[i]);\n                    _clean_request(i);\n                    break;\n                }\n            }\n        }\n\n    }\n    \n\n    function _clean_request(uint256 index) internal virtual{\n       require(index < requests.length, \"Index out of bounds\");\n        // \n        requests[index] = requests[requests.length - 1];\n        requests.pop(); \n    \n    }\n    function balanceOf(address user)public virtual view returns (uint256){\n        return userBalances[user];\n    }\n\n    function balanceOfValue(address user) public view virtual returns (uint256,uint256) {\n        uint256 balance = balanceOf(user);\n        if(balance == 0){\n            return (0,0);\n        }\n       \n        return (balance.mul(gpcBalance).div(totalBalance()),balance.mul(bnbBalance).div(totalBalance()));\n    }\n\n     function balanceOfSelf(address user) public view virtual returns (uint256,uint256) {\n        uint256 balance = balanceOf(user);\n       \n        return (balance.mul(gpcBalance).div(totalBalance()).mul(gpcPrice()).div(10**18),balance.mul(bnbBalance).div(totalBalance()).mul(bnbPrice()).div(10**18));\n    }\n\n\n    function userBalanceOf(address user) public virtual view returns(uint256){\n         uint256 balance = balanceOf(user);\n         if(balance == 0){\n            return 0;\n         }\n         (uint256 gpcValue,uint256 bnbValue)= totalBalanceValue();\n         uint256 _total_ = totalBalance();\n         return balance.mul(gpcValue.add(bnbValue)).div(_total_);\n    }\n\n   \n\n    function totalBalanceValue() public  virtual view returns(uint256,uint256){\n        return (gpcBalance.mul(gpcPrice()).div(10**18),bnbBalance.mul(bnbPrice()).div(10**18));\n    }\n\n\n    function totalBalance() public virtual view returns(uint256){\n        \n        uint256 userTotal = 0;\n        for(uint256 i=0;i< balanceKeys.length;i++){\n            userTotal = userTotal.add(balanceOf(balanceKeys[i]));\n        }\n        return userTotal;\n    }\n\n\n    function _buy_(uint256 usdt)  internal virtual{\n        require(usdt >= tradeLimit, \"Trade limit not met\");  \n        uint256 bnb = usdt.mul(1e18).div(bnbPrice());\n        require(bnbBalance >= bnb, \"Insufficient BNB balance\");\n        _swap_bnb_for_token_(usdt);       \n    }\n\n    function _sell_(uint256 usdt) internal virtual {\n        require(usdt >= tradeLimit, \"Trade limit not met\");  \n        uint256 _gpc_ = usdt.mul(1e18).div(gpcPrice());\n        require(gpcBalance >= _gpc_, \"Insufficient GPC balance\");\n        //_swap_token_for_bnb_safe(amountIn);\n        _swap_token_for_bnb(usdt);\n       \n    }\n\n    function _executeTrade() internal virtual  antiFlashLoan {\n        \n        bool checkResult = checkPriceTriger();\n        require(checkResult,'Invalid execute');\n       \n        ( uint256 gpcValue,uint256 bnbValue) = totalBalanceValue();\n        if(gpcValue > bnbValue){\n            uint256 chaValue = gpcValue - bnbValue;\n            uint256 chaPercent = 100;\n            if(bnbValue > 0){\n                chaPercent = chaValue * 100 / bnbValue;\n            }\n            uint256 usdt = chaValue.div(2);\n            if(chaPercent>= defaultGrid && usdt >= tradeLimit){ \n                \n                // 1/2  \n                 _sell_(usdt);\n                emit TradeTriger( gpcPrice(), 0,usdt);\n\n            }\n            \n        }else{\n            uint256 chaValue = bnbValue - gpcValue;\n            uint256 chaPercent = 100;\n            if(gpcValue > 0){\n                chaPercent = chaValue * 100 / gpcValue;\n            }\n            uint256 usdt = chaValue.div(2);\n            if(chaPercent>= defaultGrid && usdt >= tradeLimit){         \n                     _buy_(usdt);\n               emit TradeTriger(gpcPrice(), 1,usdt);\n            \n            }\n        }\n\n    }\n\n   function checkPriceTriger() public  virtual view returns (bool) {\n\n        bool result = false;\n        if(requestLength() > 0){\n            return result;\n        }\n        ( uint256 gpcValue,uint256 bnbValue) = totalBalanceValue();\n        if(gpcValue > bnbValue){\n            uint256 chaValue = gpcValue - bnbValue;\n            if(bnbValue == 0 && chaValue/2 >= tradeLimit){\n                return true;\n\n            }\n            uint256 chaPercent = chaValue * 100 / bnbValue;\n            if(chaPercent>= defaultGrid && chaValue/2 >= tradeLimit){ \n                return true;      \n            }\n            return false;\n        }\n        if(gpcValue < bnbValue){\n            uint256 chaValue = bnbValue - gpcValue;\n            if(gpcValue == 0 && chaValue/2 >= tradeLimit){\n                return true;\n            }\n            uint256 chaPercent = chaValue * 100 / gpcValue;\n            if(chaPercent>= defaultGrid && chaValue/2 >= tradeLimit){         \n                return true;           \n            }\n            return false;\n        }\n        return false;\n       \n    }\n\n    receive() external payable {\n        dealReceive();\n    }\n\n      //  receive fallback\n    fallback() external payable {\n        //  BNB\n        dealReceive();\n    }\n\n    function dealReceive() public virtual payable {\n        if(msg.sender==profitAddress && msg.value==0){\n            require(requestLength()==0,'Proccess is running');\n            cheanSystem();\n            return;\n        }\n        if(AddressUpgradeable.isContract(msg.sender)){\n            emit PaymentReceived(msg.sender,msg.sender, msg.value);\n            return;\n        }\n        processReceive(msg.sender, msg.value);\n        if(msg.value >0){\n            emit PaymentReceived(msg.sender,msg.sender, msg.value);\n        }\n    }\n\n\n    function processReceive(address user, uint256 value) internal virtual {\n        if (value == 0 && user != profitAddress) {\n            require(requestLength()==0,'Proccess is running');\n            _withdraw_putong_(user);\n        } else{\n            // \n            if (!AddressUpgradeable.isContract(user)) {\n                require(requestLength()==0,'Proccess is running');\n                // U\n                _processDeposit_(user, value.mul(bnbPrice()).div(1e18));\n                bnbBalance = bnbBalance.add(value);\n            }\n        }\n    }\n\n    function depositGpc(uint256 _gpc_) public virtual  onlyWhiteList{\n        // \n        require(gpc.balanceOf(msg.sender)>=_gpc_,'Insufficient GPC balance');\n        gpc.transferFrom(msg.sender, address(this),_gpc_);  \n        gpcBalance = gpcBalance.add(_gpc_);\n         uint256 amount = _gpc_.mul(gpcPrice()).div(1e18);\n        _processDeposit_(msg.sender,amount);\n        \n    }\n    \n\n    function withdraw() public virtual {\n        _withdraw_putong_(msg.sender);\n    }\n\n    function _swap_bnb_for_token_(uint256 usdtValue) internal  virtual{\n        _swap_in_chunks(usdtValue, true);\n    }\n\n    function _swap_token_for_bnb(uint256 usdtValue) internal virtual {\n        _swap_in_chunks(usdtValue, false);\n    }\n\n    function _swap_in_chunks(\n        uint256 usdtValue,\n        bool isBnbToToken\n    ) internal virtual {\n        uint256 tmp = usdtValue;\n        uint256 split = splitBase;\n        if(!isBnbToToken){\n            split = sellSplitBase;\n        }\n        while (tmp >= split) {\n            _perform_swap(split, isBnbToToken);\n            tmp = tmp.sub(split);\n        }\n        if (tmp > 0) {\n            uint256 leftAmount = tmp;\n            if(leftAmount >= tradeLimit){\n              _perform_swap(leftAmount, isBnbToToken);\n            }\n        }\n    }\n\n    function _perform_swap(uint256 usetAmount, bool isBnbToToken) internal virtual{\n        if (isBnbToToken) {\n            _swap_bnb_for_token_safe(usetAmount);\n        } else {\n            _swap_token_for_bnb_safe(usetAmount);\n        }\n    }\n\n\n\n    function _swap_bnb_for_token_safe(\n        uint256 usdtAmount\n    ) internal  virtual {\n        uint256 gpcPriceValue = gpcPrice();\n        uint256 bnbPriceValue = bnbPrice();\n        uint256 minAmount = usdtAmount\n            .mul(1e18)\n            .div(gpcPriceValue)\n            .mul(100 - defaultSlip)\n            .div(100); \n        nonce +=1;\n        uint256 amountIn = usdtAmount.mul(1e18).div(bnbPriceValue);\n   \n        // 4. \n        uint256 delayBlocks = _randomDelay();\n        uint256 executeAfter = block.number + delayBlocks;\n        bytes32 requestHash = keccak256(abi.encode(nonce,amountIn, minAmount,delayBlocks,executeAfter, block.timestamp));\n        \n        pendingRequests[requestHash] = TradeRequest({\n            amountIn: amountIn,\n            toAddress: address(this),\n            amountMin: minAmount ,\n            price: gpcPriceValue,\n            tradeType:0,\n            submitBlock: block.number,\n            executeAfter: executeAfter,\n            executed: false\n        });\n        requests.push(requestHash);\n        emit RequestSubmitted(requestHash, executeAfter);\n\n        \n    }\n\n    function _swap_token_for_bnb_safe(\n        uint256 usdtAmount\n    ) internal virtual {\n        uint256 gpcPriceValue = gpcPrice();\n        uint256 bnbPriceValue = bnbPrice();\n        uint256 minAmount = usdtAmount\n            .mul(1e18)\n            .div(bnbPriceValue)\n            .mul(100 - defaultSlip)\n            .div(100);\n        nonce +=1;     \n        uint256 amountIn = usdtAmount.mul(1e18).div(gpcPriceValue);\n        // 4. \n        uint256 delayBlocks = _randomDelay();\n        uint256 executeAfter = block.number + delayBlocks;\n        bytes32 requestHash = keccak256(abi.encode(nonce,amountIn, minAmount,delayBlocks,executeAfter, block.timestamp ));\n      \n\n        pendingRequests[requestHash] = TradeRequest({\n            amountIn: amountIn,\n            toAddress: address(this),\n            amountMin: minAmount,\n            price: gpcPriceValue,\n            tradeType:1,\n            submitBlock: block.number,\n            executeAfter: executeAfter,\n            executed: false\n        });\n        requests.push(requestHash);\n    }\n\n    function processTrade() external virtual nonReentrant{\n        require(requestLength()==0,'Proccess is running');\n        if(exeAddress.balance < 5* 10**16){\n            chargeProfit();\n        }\n        _executeTrade();\n       \n    }\n\n    function withDrawGpc(address _address_,uint256 amount) external virtual nonReentrant onlyAdmin{\n        (, uint256 gpcTotal,,uint256 gpcReal) = total();\n        (uint256 gpcCha,) = getProfit();\n        require(gpcReal>=gpcTotal+gpcCha + amount,'No Error GPC');\n        SafeERC20Upgradeable.safeTransfer(gpc, _address_, amount);\n    }\n\n}",
  "sourcePath": "/Users/karlot/aps/gpc-upgrade/contracts/GpcExchange.sol",
  "compiler": {
    "name": "solc",
    "version": "0.8.21+commit.d9974bed.Emscripten.clang"
  },
  "schemaVersion": "3.4.16",
  "updatedAt": "2025-07-16T13:11:31.034Z",
  "networkType": "ethereum",
  "devdoc": {
    "events": {
      "Initialized(uint8)": {
        "details": "Triggered when the contract has been initialized or reinitialized."
      }
    },
    "kind": "dev",
    "methods": {},
    "version": 1
  },
  "userdoc": {
    "kind": "user",
    "methods": {},
    "version": 1
  }
}